:1000000002C1000031C100002FC100002DC100005D
:100010002BC1000029C1000027C1000025C100003C
:1000200023C1000021C100001FC100001DC100004C
:100030001BC1000019C1000017C1000015C100005C
:1000400013C1000011C100000FC100000DC100006C
:100050000C94430909C1000007C100000C94F90881
:1000600003C100000C94C3080C949A08FDC0000062
:10007000FBC00000F9C00000F7C00000F5C00000A0
:10008000F3C00000F1C00000EFC00000EDC00000B0
:10009000EBC00000E9C00000E7C00000E5C00000C0
:1000A000E3C00000E1C00000DFC00000DDC00000D0
:1000B000DBC00000D9C00000D7C00000D5C00000E0
:1000C000D3C00000D1C00000CFC00000CDC00000F0
:1000D000CBC00000C9C00000C7C00000C5C0000000
:1000E000C3C0000000002100240027002A002D00CA
:1000F0003000330001010000040107010A01000083
:100100002200250028002B002E00310034000201BF
:100110000000050108010B0100002000230026005B
:1001200029002C002F00320000010000030106010D
:10013000090105050505070508080808020202026D
:100140000A0A080804040404010101010101010173
:100150000303030303030303040707070C0C0C0C3E
:100160000C0C0C0C02020202060606060606060627
:100170000B0B0B0B0B0B0B0B0102102020080810B4
:100180002040102040800201020108040201010207
:1001900004081020408080402010080402018004E0
:1001A000020180402010080402010804020101023B
:1001B0000408102040800102040810204080000044
:1001C0000A0B02090C0D0E080703040100000000D1
:1001D000000000000000000000000000000000001F
:1001E00000000000000000000000121110000000DC
:1001F00000000000000000000000000000000000FF
:10020000000000006E0911241FBECFEFD1E2DEBF57
:10021000CDBF00E00CBF12E0A0E0B2E0EEE9FDE1EE
:1002200000E00BBF02C007900D92A43CB107D9F7C4
:1002300024E0A4ECB2E001C01D92AF30B207E1F7B8
:1002400011E0C3E0D1E000E006C021970109802F52
:10025000FE010E94A00CC230D10780E00807A9F778
:100260000E94FC090C94CD0ECBCE96E0899FD00164
:100270001124A456BC4F90967C936E935F9791E0A7
:1002800091969C939197E0910904F0910A049091C2
:100290000804992339F0309751F0811108C08091FA
:1002A000B8031994309719F05C968C91FACF0895A1
:1002B000CF92DF92EF92FF920F931F9396E0899F68
:1002C000F0011124E456FC4F11A2278D30A12130FA
:1002D000310549F178F02230310509F44FC023305F
:1002E000310509F450C01F910F91FF90EF90DF90FE
:1002F000CF9008956623B9F361E070E0B6DF2FB7C1
:10030000F8948091FB029091FC02A091FD02B091C3
:10031000FE022FBF8093F4039093F503A093F6039E
:10032000B093F703E0CF9FB7F894C090FB02D09052
:10033000FC02E090FD02F090FE029FBF0091F403EA
:100340001091F5032091F6033091F703C01AD10AFA
:10035000E20AF30A009106041091070430E020E05D
:100360000C151D052E053F0548F462E070E01F9155
:100370000F91FF90EF90DF90CF9077CF6111B3CFC7
:1003800063E070E0F4CF70E060E0F1CFAF92BF9235
:10039000CF92DF92EF92FF920F931F93CF93DF9351
:1003A0006C017B018B01040F151FEB015E01AE1880
:1003B000BF08C017D10759F06991D601ED91FC91A2
:1003C0000190F081E02DC6011995892B79F7C501BF
:1003D000DF91CF911F910F91FF90EF90DF90CF9021
:1003E000BF90AF900895FC01538D448D252F30E0D0
:1003F000842F90E0821B930B541710F0CF96089532
:1004000001970895FC01918D828D981761F0A28D5E
:10041000AE0FBF2FB11D5D968C91928D9F5F9F7324
:10042000928F90E008958FEF9FEF0895FC01918DDA
:10043000828D981731F0828DE80FF11D858D90E047
:1004400008958FEF9FEF0895FC01918D228D892FE4
:1004500090E0805C9F4F821B91098F7399270895CC
:100460008FEF92E0F1DF21E0892B09F420E0822F69
:100470000895FC01A48DA80FB92FB11DA35ABF4F39
:100480002C91848D90E001968F739927848FA68993
:10049000B7892C93A089B1898C91837080648C93E7
:1004A000938D848D981306C00288F389E02D808196
:1004B0008F7D80830895EF92FF920F931F93CF93C8
:1004C000DF93EC0181E0888F9B8D8C8D98131AC08F
:1004D000E889F989808185FF15C09FB7F894EE8976
:1004E000FF896083E889F9898081837080648083D3
:1004F0009FBF81E090E0DF91CF911F910F91FF901E
:10050000EF900895F62E0B8D10E00F5F1F4F0F73C5
:100510001127E02E8C8D8E110BC00FB607FCFACF81
:10052000E889F989808185FFF5CFCE01A2DFF2CF7E
:10053000EB8DEC0FFD2FF11DE35AFF4FF0829FB7BB
:10054000F8940B8FEA89FB8980818062D0CFCF93AA
:10055000DF93EC01888D8823B1F0AA89BB89E889F3
:10056000F9898C9185FD03C0808186FD0CC00FB692
:1005700007FCF7CF8C9185FFF2CF808185FFEDCF0F
:10058000CE0177DFEACFDF91CF91089580E090E050
:10059000892B21F065DF81110E94000080E090E04E
:1005A000892B49F080E090E0892B29F00E9400001F
:1005B00081110E94000080E090E0892B49F080E0EA
:1005C00090E0892B29F00E94000081110E94000018
:1005D00080E090E0892B49F080E090E0892B29F0C1
:1005E0000E94000081110C94000008958150823116
:1005F00008F05AC0E82FF0E08827EE5FFC4F8F4FDD
:100600000C94A00C2203260314031A031E035403A4
:1006100029032F03330339033D03410347034B03EE
:1006200054034F0355035903809180008F778093C3
:1006300080000895809180008F7DF9CF80918000A7
:10064000877FF5CF84B58F7784BD089584B58F7D7E
:10065000FBCF8091B0008F778093B0000895809198
:10066000B0008F7DF9CF809190008F7780939000BC
:100670000895809190008F7DF9CF80919000877FC1
:10068000F5CF8091A0008F778093A000089580918E
:10069000A0008F7DF9CF8091A000877FF5CF80915A
:1006A00020018F77809320010895809120018F7D14
:1006B000F9CF80912001877FF5CFCF93DF93282F4B
:1006C00030E0F901E254FE4F8491F901E858FE4F01
:1006D000D491F901EE5CFE4FC491CC2399F08111C5
:1006E00085DFEC2FF0E0EE0FFF1FE85EFE4FA591D7
:1006F000B491EC91ED2381E090E009F480E0DF918A
:10070000CF91089580E090E0FACF1F93CF93DF93CD
:10071000282F30E0F901E254FE4F8491F901E858A6
:10072000FE4FD491F901EE5CFE4FC491CC23A1F0B1
:10073000162F81115BDFEC2FF0E0EE0FFF1FE25070
:10074000FF4FA591B4918FB7F894EC91111108C0A7
:10075000D095DE23DC938FBFDF91CF911F91089559
:10076000DE2BF8CFCF93DF9390E0FC01E858FE4FEB
:1007700024918E5C9E4FFC0184918823C9F090E007
:10078000880F991FFC01EC51FF4FA591B491FC011A
:10079000E250FF4FC591D49161110DC09FB7F894FD
:1007A0008C91209582238C938881282328839FBF56
:1007B000DF91CF910895623051F49FB7F8943C9146
:1007C000822F809583238C93E8812E2BEFCF8FB7D8
:1007D000F894EC912E2B2C938FBFEACF862F6DCF00
:1007E000862F642F92CF862F642FBCCF2091CF020B
:1007F000222341F0FC0144815581608171818FEF9A
:1008000092E0C4CD08956F927F928F929F92AF92A3
:10081000BF92CF92DF92EF92FF920F931F93CF93ED
:10082000DF9381E0809308048FB7F8944091FB0236
:100830005091FC026091FD027091FE028FBF809189
:10084000F8039091F903A091FA03B091FB03481BC0
:10085000590B6A0B7B0B8091040490910504B0E066
:10086000A0E084179507A607B70708F01AC1C0E0F3
:1008700080910204C81758F4E091FE03F091FF0341
:10088000EC0FF11D62E080816DDFCF5FF1CF712C45
:10089000812C912C5401839480910304781608F0E4
:1008A0005AC0072D10E0E0910004F0910104E00F20
:1008B000F11F61E0808156DFE0910004F0910104B6
:1008C000E00FF11F60E0808120DFD501C401072C1B
:1008D00004C0880F991FAA1FBB1F0A94D2F76C018E
:1008E0007C01E094F094612C809102046816F0F48D
:1008F000C62DD0E0E091FE03F091FF03EC0FFD1F49
:100900008081DBDE2496CC0FDD1FC456DC4F892BA3
:1009100041F4888199818C299D29998388836394E6
:10092000E3CF888199818E219F21F7CFE091000448
:10093000F0910104E00FF11F61E08081E6DE80911B
:10094000000490910104080F191F60E0F8018081F4
:1009500009DF7394A1CFCCE9D3E0FE018FEF9FEFC5
:10096000278D30A1232B21F4148E968F858F11A211
:10097000369623E0E83DF20799F7F12C96E0D92E60
:1009800080910204F81608F04FC0E12C0F2D10E002
:10099000000F111F0C551C4F20910304E21608F0A4
:1009A00041C0F801608171810E2C02C07695679577
:1009B0000A94E2F7F29E900111242E0D311DECE90C
:1009C000F3E080E0458D568D2417350709F472C099
:1009D0008F5F36968A30B1F760FF22C0ECE9F3E012
:1009E00090E080E0448D411116C0E091FC03F0914D
:1009F000FD03E20FF31F4081D89EF001D99EF00D58
:100A00001124E456FC4F448F368F258F10A2178E89
:100A100061E04EDC05C0019636968A30910511F7EB
:100A2000E394BACFF394ACCF80E099A19111892FD0
:100A30002696F3E0C83DDF07C1F79FB7F8944091D1
:100A4000FB025091FC026091FD027091FE029FBF7B
:100A50004093F8035093F9036093FA037093FB03F8
:100A60008823F9F08091BD038823D9F08091BB03DE
:100A70009091BC030197A9F48091B8038093C902B7
:100A8000811114C0DF91CF911F910F91FF90EF90D2
:100A9000DF90CF90BF90AF909F908F907F906F909E
:100AA0000895109208041092C902ECCF81E080935F
:100AB000C802E8CF6170ADCFE091D0028E2F86954D
:100AC0008695E37024E0829FC0011124875F9D4FCB
:100AD000E80FF92FF11D80818093C902882319F056
:100AE00081E08093C80208957F928F929F92AF9287
:100AF000BF92CF92DF92EF92FF920F931F93CF930B
:100B0000DF938C0161E08DE000DEE80193E4C92E03
:100B100092E0D92E58018AE0A80EB11CE990F601A6
:100B200071906F0161E0872DF0DD8DE3882E82E00A
:100B3000982E10E000E0F12CB701002E02C0759550
:100B400067950A94E2F76170F40181914F01DDDD50
:100B50000F5F1F4F0630110579F760E0872DD5DD57
:100B6000CA15DB05D9F660E08DE0DF91CF911F91CA
:100B70000F91FF90EF90DF90CF90BF90AF909F903C
:100B80008F907F90C2CD0F931F93CF93DF93EC0193
:100B900088819981009759F02A813B812617370770
:100BA00030F081E0DF91CF911F910F9108958B017B
:100BB0006F5F7F4F0E94E10D009759F09983888302
:100BC0001B830A832C813D81232B59F7FC01108262
:100BD000E8CF80E0E7CFEF92FF920F931F93CF9380
:100BE000DF936115710541F480E0DF91CF911F9192
:100BF0000F91FF90EF90089541155105A9F07B01E9
:100C0000EC010C811D81040F151FB801BCDF882386
:100C100059F3288139818C819D81B701820F931FFF
:100C20000E94C60E1D830C8381E0DFCFCF93DF933C
:100C3000EC0188819981009709F03AD719821882CE
:100C40001D821C821B821A82DF91CF910895EF9240
:100C5000FF920F931F93CF93DF93EC017B018A01E7
:100C6000BA0191DF81110AC0CE01E0DFCE01DF9130
:100C7000CF911F910F91FF90EF9008951D830C83EA
:100C8000B701888199810E94C60EF0CFEF92FF9242
:100C90000F931F93CF93DF93CDB7DEB762970FB655
:100CA000F894DEBF0FBECDBF8C01CB01F8011182DD
:100CB000108213821282158214824AE09E012F5FF5
:100CC0003F4F7901B9018DD5F70101900020E9F777
:100CD0003197AF014E195F09B701C801B8DF6296BD
:100CE0000FB6F894DEBF0FBECDBFDF91CF911F913D
:100CF0000F91FF90EF900895CF93DF93EC01FB01EC
:100D00008617970741F0608171816115710539F08F
:100D1000448155819CDFCE01DF91CF91089586DF1C
:100D2000FACFCF93DF931F921F92CDB7DEB7FC01AE
:100D300011821082138212821582148269831A82B0
:100D4000BE016F5F7F4FFB0101900020E9F73197F3
:100D5000AF01461B570B7BDF0F900F90DF91CF91B8
:100D60000895FC011182108213821282158214826E
:100D7000FB0101900020E9F73197AF01461B570BAB
:100D800066CFFC0180819181009709F091C608959A
:100D9000CF93DF9300D000D0CDB7DEB71A8219828F
:100DA0001C821B821E821D82BC01CE010196A4DF23
:100DB000CE0101961BDDCE010196E3DF6DE0CE0191
:100DC0000196AFDFCE01019611DDCE010196D9DF8C
:100DD00026960FB6F894DEBF0FBECDBFDF91CF9140
:100DE00008958F929F92AF92BF92CF92DF92EF922F
:100DF000FF920F931F93CF93DF93CDB7DEB7689722
:100E00000FB6F894DEBF0FBECDBF69E672E0CE012B
:100E10000196A7DFCE010196BBDFCE010196B1DFBF
:100E200064E070E0CE010D9631DF6AE070E0CE0143
:100E300007962CDF68E872E0CE01019692DF4B85C1
:100E40005C856F817885CE010196C5DE811103C076
:100E5000CE010196EBDE41E050E06CE972E0CE019C
:100E60000196B9DE811103C0CE010196DFDE49890A
:100E70005A896D857E85CE010196ADDE811103C054
:100E8000CE010196D3DE41E050E06EE972E0CE0182
:100E90000196A1DE811103C0CE010196C7DE1C8A36
:100EA0001B8A1E8A1D8A188E1F8ABE016F5F7F4FA4
:100EB000CE01439621DFCE0143966ADFCE014396F1
:100EC00060DFCE0101965DDFCE0107965ADFCE01CD
:100ED0000D9657DF69E672E0CE01019642DFCE0142
:100EE000019656DFCE0101964CDF23EDE22E22E083
:100EF000F22E34E0A32E02E010E08EEF882E800E5A
:100F000067019AE0992EB82CB0161106D4F4F601B8
:100F1000808190E00B2C02C0959587950A94E2F7AA
:100F200060EA72E080FD02C062EA72E0CE010196E2
:100F300018DFCE0101965ADCCE01019622DFB39470
:100F4000E3CF64EA72E0CE0101960BDFCE01019699
:100F50004DDCCE01019615DF9A94FFEFCF1ADF0A20
:100F60009110D1CF63EA72E0CE010196FADECE0194
:100F700001960EDFCE01019604DF0E5F1F4F083091
:100F8000110509F0BACF63EA72E0CE010196E9DEFD
:100F9000CE010196FDDECE010196F3DEAA948AE031
:100FA000E80EF11CA110A7CF69E672E0CE01019610
:100FB000D8DECE010196ECDECE010196E2DE689627
:100FC0000FB6F894DEBF0FBECDBFDF91CF911F915A
:100FD0000F91FF90EF90DF90CF90BF90AF909F90D8
:100FE0008F900895FF920F931F93CF93DF9300D0BC
:100FF00000D0CDB7DEB78091C802882309F46FC056
:101000001092C8026091C9026234B1F14CF56134AA
:1010100009F463C080ED860F873008F07DC0CE01F3
:1010200001967FDE8D819E81892B21F0E981FA81F5
:10103000309721F41092C402E4ECF2E0E081E15335
:1010400090E0E63020F4F0E0E95DFD4F9081809182
:10105000C502892B8093C502CE01019692DE3FC066
:10106000633409F448C06434A9F68091C602833021
:1010700008F048C08F5F44C01091C7020091C602BB
:101080008AE0F82E812F6F2D3CD4E92FF09EC0010D
:1010900011248D529D4FE80FF92FF11D2091C502AB
:1010A000208322DD1F5F1093C702812F6F2D29D46B
:1010B00091110FC00F5F0093C602183250F0812FBC
:1010C00090E068E270E029D48093C7020370009337
:1010D000C6021092C50285DE02C01092C502269695
:1010E0000FB6F894DEBF0FBECDBFDF91CF911F9139
:1010F0000F91FF9008958091C602882319F08150C6
:101100008093C6028091C6022AE0829FC00111240A
:101110008D529D4FE9DCDFCF8BEB860F8A30F8F6DE
:101120008091C6029AE0899F600D112465546093F6
:10113000C702D5CF1F920F920FB60F9211240BB694
:101140000F922F933F934F935F936F937F938F9360
:101150009F93AF93BF93EF93FF938FEF92E089D963
:10116000FF91EF91BF91AF919F918F917F916F917F
:101170005F914F913F912F910F900BBE0F900FBE3B
:101180000F901F9018951F920F920FB60F92112477
:101190000BB60F922F938F939F93EF93FF93E09152
:1011A0000F03F09110038081E0911503F091160375
:1011B00082FD1DC09081809118038F5F8F732091F5
:1011C0001903821741F0E0911803F0E0E150FD4F60
:1011D000958F80931803FF91EF919F918F912F919D
:1011E0000F900BBE0F900FBE0F901F90189580812F
:1011F000F2CF1F920F920FB60F9211242F933F93AD
:101200008F939F93AF93BF938091FB029091FC02C9
:10121000A091FD02B091FE023091CE0223E0230F97
:101220002D3758F50196A11DB11D2093CE02809354
:10123000FB029093FC02A093FD02B093FE0280910A
:10124000CA029091CB02A091CC02B091CD0201963E
:10125000A11DB11D8093CA029093CB02A093CC0232
:10126000B093CD02BF91AF919F918F913F912F91FC
:101270000F900FBE0F901F90189526E8230F02962F
:10128000A11DB11DD2CF1F920F920FB60F92112444
:101290000BB60F922F933F934F935F936F937F9370
:1012A0008F939F93AF93BF93EF93FF93E091D102FE
:1012B000F091D2021995FF91EF91BF91AF919F915B
:1012C0008F917F916F915F914F913F912F910F90EF
:1012D0000BBE0F900FBE0F901F9018951092020337
:1012E0001092010388EE93E0A0E0B0E08093030346
:1012F00090930403A0930503B093060381E592E065
:10130000909300038093FF0285EC90E090930C0390
:1013100080930B0384EC90E090930E0380930D0375
:1013200080EC90E09093100380930F0381EC90E0A9
:10133000909312038093110382EC90E09093140336
:101340008093130386EC90E090931603809315032B
:10135000109218031092190310921A0310921B0393
:1013600010929E031092A2031092A1031092A30365
:1013700083E692E090939D0380939C03E8EBF3E077
:101380001082148213821582369683E0E43FF807B8
:10139000B9F784E092E09093FF038093FE0380E02E
:1013A00092E0909301048093000485E0809302040E
:1013B00084E08093030489E092E09093FD0380939E
:1013C000FC038AE090E0909305048093040484EF8A
:1013D00091E0909307048093060410920A041092FF
:1013E00009041092F8031092F9031092FA03109274
:1013F000FB03109208040895CF93DF9300D000D030
:10140000CDB7DEB7789484B5826084BD84B5816041
:1014100084BD85B5826085BD85B5816085BD8091BF
:101420006E00816080936E00109281008091810037
:10143000826080938100809181008160809381002F
:10144000809180008160809380008091B1008460F1
:101450008093B1008091B00081608093B000809152
:1014600091008260809391008091910081608093CF
:101470009100809190008160809390008091A10004
:1014800082608093A1008091A10081608093A1007F
:101490008091A00081608093A000809121018260F2
:1014A00080932101809121018160809321018091AD
:1014B000200181608093200180917A008460809374
:1014C0007A0080917A00826080937A0080917A001D
:1014D000816080937A0080917A00806880937A009E
:1014E0001092C100E0910F03F091100382E080831D
:1014F000E0910B03F0910C031082E0910D03F09149
:101500000E0383E0808310921703E0911303F091A0
:10151000140386E08083E0911103F091120380812F
:1015200080618083E0911103F091120380818860D3
:101530008083E0911103F0911203808180688083A1
:10154000E0911103F091120380818F7D808361E02F
:101550008DE008D903E412E061E0F80181918F0188
:1015600001D9F2E00D341F07B9F70DE312E061E095
:10157000F80181918F01F6D8F2E003341F07B9F723
:1015800043ED52E024E090E080E0FA01E80FF91F1B
:10159000108201968A309105C1F72150465F5F4F56
:1015A0002111F1CF12E384E6C82ED12CE12CF12CCD
:1015B00096E0492E512C612C712C2DE0322E00E04A
:1015C000802E912CB12CA12CB7D023E030E040E04C
:1015D00050E03AD16D5F7F4F8F4F9F4F8616970631
:1015E000A806B906D4F4A8D0A70196012DD19B0175
:1015F000AC01A7E0B0E044D1680D791D8A1D9B1DA8
:10160000A301920121D1695C7D4FFB018081809310
:10161000D00252DAE7DC0F5FD3CF8ED0A70196015C
:1016200013D19B01AC01A7E0B0E02AD12AE030E061
:1016300040E050E009D1635D7D4FFB0180818093E4
:10164000D0023ADACFDC3092D00236DACBDC11505D
:1016500009F0B5CF11E01093CF02C3DB80E1809396
:1016600081001092800080E197E290938700809340
:10167000860082E18093810083E094E09093D2021F
:101680008093D10210936F0066EA72E0CE0101965A
:1016900068DBCE0101967CDBCE01019672DBA2DC19
:1016A0000E94C602FCCF8F929F92AF92BF92CF92C0
:1016B000DF92EF92FF92CF93DF93EC016881798103
:1016C0008A819B81611571058105910521F464E290
:1016D00079ED8BE597E02DE133EF41E050E0B4D0B8
:1016E00049015A019B01AC01A7EAB1E4C9D06B01E1
:1016F0007C01ACEEB4EFA5019401CED0C60ED71E8E
:10170000E81EF91EF7FE06C081E0C81AD108E108FC
:1017100080E8F80AC882D982EA82FB82C701B60152
:101720009F77DF91CF91FF90EF90DF90CF90BF90A8
:10173000AF909F908F9008958F929F92AF92BF929B
:10174000CF92DF92EF92FF9260911D0270911E0284
:1017500080911F029091200261157105810591050C
:1017600021F464E279ED8BE597E02DE133EF41E080
:1017700050E06AD049015A019B01AC01A7EAB1E4EB
:101780007FD06B017C01ACEEB4EFA501940184D055
:10179000C60ED71EE81EF91EF7FE06C081E0C81A65
:1017A000D108E10880E8F80AC0921D02D0921E021A
:1017B000E0921F02F0922002C701B6019F77FF90CE
:1017C000EF90DF90CF90BF90AF909F908F90089553
:1017D00060931D0270931E0280931F02909320025B
:1017E0000895BB274A3031F4992322F4BDE2909545
:1017F00081959F4F01C0BB27FB015527AA27880F62
:10180000991FAA1FA41710F0A41B83955051B9F774
:10181000A05DAA3308F0A95DA193009779F7B111F3
:10182000B1931192CB0100C0DC01FC01672F7191D3
:101830007723E1F7329704C07C916D9370836291B6
:10184000AE17BF07C8F30895052E97FB16F4009452
:101850000FD057FD05D024D007FC02D046F408C0B5
:1018600050954095309521953F4F4F4F5F4F0895CC
:1018700090958095709561957F4F8F4F9F4F0895FC
:1018800031D0A59F900DB49F900DA49F800D911D08
:1018900011240895B7FFF4CFF3DF821B930B089553
:1018A000A1E21A2EAA1BBB1BFD010DC0AA1FBB1F64
:1018B000EE1FFF1FA217B307E407F50720F0A21BD6
:1018C000B30BE40BF50B661F771F881F991F1A9443
:1018D00069F760957095809590959B01AC01BD016D
:1018E000CF010895A29FB001B39FC001A39F700DC7
:1018F000811D1124911DB29F700D811D1124911D18
:101900000895991B79E004C0991F961708F0961B5B
:10191000881F7A95C9F78095089597FB072E16F4CE
:10192000009406D077FD08D013D007FC05D03EF414
:10193000909581959F4F0895709561957F4F08957B
:10194000EE0FFF1F881F8BBF0790F691E02D1994B3
:10195000AA1BBB1B51E107C0AA1FBB1FA617B707D5
:1019600010F0A61BB70B881F991F5A95A9F78095F1
:101970009095BC01CD0108950F931F93CF93DF93F2
:101980008230910510F482E090E0E0910D04F09136
:101990000E0430E020E0B0E0A0E0309799F421158B
:1019A000310509F44AC0281B390B24303105D8F51C
:1019B0008A819B816115710589F1FB019383828383
:1019C000FE0111C0408151810281138148175907DE
:1019D000E0F04817590799F4109761F012960C93AC
:1019E000129713961C933296CF01DF91CF911F91DE
:1019F0000F91089500930D0410930E04F4CF211558
:101A0000310551F04217530738F0A901DB019A0163
:101A1000BD01DF01F801C1CFEF01F9CF90930E04B2
:101A200080930D04CDCFFE01E20FF31F81939193BC
:101A30002250310939832883D7CF20910B0430916C
:101A40000C04232B41F42091230230912402309383
:101A50000C0420930B0420912102309122022115C5
:101A6000310541F42DB73EB7409125025091260231
:101A7000241B350BE0910B04F0910C04E217F307E3
:101A8000A0F42E1B3F0B2817390778F0AC014E5FEE
:101A90005F4F2417350748F04E0F5F1F50930C041B
:101AA00040930B04819391939FCFF0E0E0E09CCFB3
:101AB000CF93DF930097E9F0FC01329713821282F3
:101AC000A0910D04B0910E04ED0130E020E01097DC
:101AD000A1F420813181820F931F20910B0430915A
:101AE0000C042817390709F061C0F0930C04E09347
:101AF0000B04DF91CF910895EA01CE17DF07E8F5D7
:101B00004A815B819E0141155105B1F7E901FB83D3
:101B1000EA8349915991C40FD51FEC17FD0761F471
:101B2000808191810296840F951FE90199838883B2
:101B3000828193819B838A83F0E0E0E012968D910D
:101B40009C9113970097B9F52D913C911197CD0178
:101B50000296820F931F20910B0430910C042817DA
:101B6000390739F6309751F510920E0410920D0492
:101B7000B0930C04A0930B04BCCFD383C2834081E9
:101B80005181840F951FC817D90761F44E5F5F4FCD
:101B900088819981480F591F518340838A819B8195
:101BA000938382832115310509F0B0CFF0930E04A1
:101BB000E0930D049ECFFD01DC01C0CF13821282A1
:101BC000D7CF4F925F926F927F928F929F92AF92F8
:101BD000BF92CF92DF92EF92FF920F931F93CF931A
:101BE000DF938C01009791F4CB01DF91CF911F918E
:101BF0000F91FF90EF90DF90CF90BF90AF909F90AC
:101C00008F907F906F905F904F90B6CEFC01E60F63
:101C1000F71F9C0122503109E217F30708F4AAC00C
:101C2000D901CD91DC911197C617D70718F1C530AE
:101C3000D10570F0CE0104978617970748F0C61BB0
:101C4000D70B2297C193D1936D937C93CF0130DF53
:101C5000C801DF91CF911F910F91FF90EF90DF901E
:101C6000CF90BF90AF909F908F907F906F905F903C
:101C70004F9008955B01AC1ABD0A4C018C0E9D1E5D
:101C8000A0910D04B0910E04512C412CF12CE12CAB
:101C9000109731F580910B0490910C0488159905EB
:101CA00009F05CC04616570608F058C08091210222
:101CB00090912202009741F48DB79EB74091250282
:101CC00050912602841B950BE817F90708F052C0C3
:101CD000F0930C04E0930B04F90171836083B8CF97
:101CE0008D919C91119712966C90129713967C90FF
:101CF0001397A815B90559F56C0142E0C40ED11C23
:101D0000CA14DB0420F1AC014A195B09DA0112960E
:101D1000159780F06282738251834083D9016D935D
:101D20007C93E114F10471F0D7011396FC93EE93C8
:101D300012978ECF22968C0F9D1FF901918380837D
:101D4000F301EFCFF0930E04E0930D0481CF48161A
:101D5000590608F42C017D01D3019ACFCB010CDE8A
:101D60007C01009739F0AE01B80107D0C801A0DEB0
:101D700087016ECF10E000E06BCFFB01DC0102C0F9
:101D800001900D9241505040D8F70895FB01DC01BD
:0E1D900001900D920020E1F70895F894FFCF26
:101D9E002B2C2D2E262728292A3134454A3235461A
:101DAE004B3336474C4142484D4344494E010000A7
:101DBE000000000F04800001041002082002030638
:101DCE00070A0B0E0F121300010405080920212229
:101DDE00232425161718191A1B1C1D1E1F00000080
:101DEE00005B02C601F301A70224020202160200E2
:101DFE00000000F303F003EE032D2D2D2D2D2D2DC0
:101E0E002D2D2D2D2D2D2D2D2D2D2D2D2D2D2D2DF4
:101E1E002D2D2D2D2D2D2D002020202020427261C4
:101E2E00696C6C652050616765205B0078005D0011
:101E3E002A0020007C0057616974696E6720666F06
:101E4E00722055736572204B6579205072657373DD
:041E5E002E2E2E00F6
:00000001FF
